{
  "contractName": "Election",
  "abi": [
    {
      "constant": true,
      "inputs": [
        {
          "name": "",
          "type": "address"
        }
      ],
      "name": "votersList",
      "outputs": [
        {
          "name": "",
          "type": "bool"
        }
      ],
      "payable": false,
      "stateMutability": "view",
      "type": "function"
    },
    {
      "constant": true,
      "inputs": [],
      "name": "candidate",
      "outputs": [
        {
          "name": "",
          "type": "string"
        }
      ],
      "payable": false,
      "stateMutability": "view",
      "type": "function"
    },
    {
      "constant": true,
      "inputs": [],
      "name": "candidateCount",
      "outputs": [
        {
          "name": "",
          "type": "uint256"
        }
      ],
      "payable": false,
      "stateMutability": "view",
      "type": "function"
    },
    {
      "constant": true,
      "inputs": [
        {
          "name": "",
          "type": "uint256"
        }
      ],
      "name": "candidateList",
      "outputs": [
        {
          "name": "id",
          "type": "uint256"
        },
        {
          "name": "name",
          "type": "string"
        },
        {
          "name": "voteCount",
          "type": "uint256"
        }
      ],
      "payable": false,
      "stateMutability": "view",
      "type": "function"
    },
    {
      "inputs": [],
      "payable": false,
      "stateMutability": "nonpayable",
      "type": "constructor"
    },
    {
      "constant": false,
      "inputs": [
        {
          "name": "_candidateID",
          "type": "uint256"
        }
      ],
      "name": "vote",
      "outputs": [],
      "payable": false,
      "stateMutability": "nonpayable",
      "type": "function"
    }
  ],
  "bytecode": "0x608060405234801561001057600080fd5b5061005e6040805190810160405280600d81526020017f4e6172656e647261204d6f6469000000000000000000000000000000000000008152506100b0640100000000026401000000009004565b6100ab6040805190810160405280600c81526020017f526168756c2047616e64686900000000000000000000000000000000000000008152506100b0640100000000026401000000009004565b6101d2565b6001600081548092919060010191905055506060604051908101604052806001548152602001828152602001600081525060036000600154815260200190815260200160002060008201518160000155602082015181600101908051906020019061011c92919061012d565b506040820151816002015590505050565b828054600181600116156101000203166002900490600052602060002090601f016020900481019282601f1061016e57805160ff191683800117855561019c565b8280016001018555821561019c579182015b8281111561019b578251825591602001919060010190610180565b5b5090506101a991906101ad565b5090565b6101cf91905b808211156101cb5760008160009055506001016101b3565b5090565b90565b610512806101e16000396000f30060806040526004361061006d576000357c0100000000000000000000000000000000000000000000000000000000900463ffffffff1680630121b93f14610072578063443019fe1461009f5780636c8381f8146100fa578063a9a981a31461018a578063b13c744b146101b5575b600080fd5b34801561007e57600080fd5b5061009d60048036038101908080359060200190929190505050610269565b005b3480156100ab57600080fd5b506100e0600480360381019080803573ffffffffffffffffffffffffffffffffffffffff169060200190929190505050610360565b604051808215151515815260200191505060405180910390f35b34801561010657600080fd5b5061010f610380565b6040518080602001828103825283818151815260200191508051906020019080838360005b8381101561014f578082015181840152602081019050610134565b50505050905090810190601f16801561017c5780820380516001836020036101000a031916815260200191505b509250505060405180910390f35b34801561019657600080fd5b5061019f61041e565b6040518082815260200191505060405180910390f35b3480156101c157600080fd5b506101e060048036038101908080359060200190929190505050610424565b6040518084815260200180602001838152602001828103825284818151815260200191508051906020019080838360005b8381101561022c578082015181840152602081019050610211565b50505050905090810190601f1680156102595780820380516001836020036101000a031916815260200191505b5094505050505060405180910390f35b600260003373ffffffffffffffffffffffffffffffffffffffff1673ffffffffffffffffffffffffffffffffffffffff16815260200190815260200160002060009054906101000a900460ff161515156102c257600080fd5b6000811180156102d457506001548111155b15156102df57600080fd5b6001600260003373ffffffffffffffffffffffffffffffffffffffff1673ffffffffffffffffffffffffffffffffffffffff16815260200190815260200160002060006101000a81548160ff021916908315150217905550600360008281526020019081526020016000206002016000815480929190600101919050555050565b60026020528060005260406000206000915054906101000a900460ff1681565b60008054600181600116156101000203166002900480601f0160208091040260200160405190810160405280929190818152602001828054600181600116156101000203166002900480156104165780601f106103eb57610100808354040283529160200191610416565b820191906000526020600020905b8154815290600101906020018083116103f957829003601f168201915b505050505081565b60015481565b6003602052806000526040600020600091509050806000015490806001018054600181600116156101000203166002900480601f0160208091040260200160405190810160405280929190818152602001828054600181600116156101000203166002900480156104d65780601f106104ab576101008083540402835291602001916104d6565b820191906000526020600020905b8154815290600101906020018083116104b957829003601f168201915b50505050509080600201549050835600a165627a7a7230582069bf0f441e96035c23dca0fbe372f8f10a6386711c16787beddb1b119c56bc0c0029",
  "source": "pragma solidity ^0.4.24;\n\ncontract Election\n{\n\t\n\tstruct Candidate\t\t\t\t\t\t\t\t\t\t//Candidate structure\n\t{\n\t\tuint id;\n\t\tstring name;\n\t\tuint voteCount;\n\t}\n\n\tstring public candidate;\n\n\tuint public candidateCount;\t\t\t\t\t\t\t//G.etter function declared automatically to access candidate count\n\n\n\t\n\tmapping(address => bool) public votersList;\t\t\t\t\t//List to store voters that have voted with a getter function\n\t\n\tmapping(uint => Candidate) public candidateList;\t\t\t//Getter function automatically declared to access candidates\n\n\t/*\n\tevent votedEvent\n\t(\n\t\tuint indexed _candidateID \n\t);\n\t*/\n\n\t\n\tfunction Election () public\t\t\t\t\t\t\t//Constructor\n\t{\n\t\taddCandidate(\"Narendra Modi\");\n\t\taddCandidate(\"Rahul Gandhi\");\n\t}\n\n\tfunction addCandidate (string _name) private\t\t\t//Function to add candidates\n\t{\n\t\tcandidateCount ++;\n\t\tcandidateList[candidateCount] = Candidate(candidateCount, _name, 0);\n\t}\n\n\tfunction vote (uint _candidateID) public\t\t\t\t//Increase vote of candidate by one\n\t{\n\t\t\n\n\t\trequire(!votersList[msg.sender]);\t\t\t\t\t\t\t\t//Verify they havent voted before\n\t\trequire(_candidateID > 0 && _candidateID <= candidateCount);\t//Check if the candidate is valid\n\t\t\n\t\t\n\n\t\tvotersList[msg.sender] = true;\t\t\t\t\t\t//Set the voters address to true\n\n\t\tcandidateList[_candidateID].voteCount ++;\n\n\t\t//votedEvent(_candidateID);\t\t\t\t\t\t\t//Trigger event after voting to refresh the page\n\t}\n}",
  "sourcePath": "E:\\Elections\\contracts\\Election.sol",
  "compiler": {
    "name": "solc",
    "version": "0.4.24+commit.e67f0147.Emscripten.clang"
  },
  "schemaVersion": "2.0.1",
  "updatedAt": "2018-10-04T09:22:51.249Z"
}