{
  "contractName": "Election",
  "abi": [
    {
      "constant": true,
      "inputs": [],
      "name": "candidate",
      "outputs": [
        {
          "name": "",
          "type": "string"
        }
      ],
      "payable": false,
      "stateMutability": "view",
      "type": "function"
    },
    {
      "constant": true,
      "inputs": [],
      "name": "candidateCount",
      "outputs": [
        {
          "name": "",
          "type": "uint256"
        }
      ],
      "payable": false,
      "stateMutability": "view",
      "type": "function"
    },
    {
      "constant": true,
      "inputs": [
        {
          "name": "",
          "type": "uint256"
        }
      ],
      "name": "candidateList",
      "outputs": [
        {
          "name": "id",
          "type": "uint256"
        },
        {
          "name": "name",
          "type": "string"
        },
        {
          "name": "voteCount",
          "type": "uint256"
        }
      ],
      "payable": false,
      "stateMutability": "view",
      "type": "function"
    },
    {
      "inputs": [],
      "payable": false,
      "stateMutability": "nonpayable",
      "type": "constructor"
    }
  ],
  "bytecode": "0x608060405234801561001057600080fd5b5061005e6040805190810160405280600d81526020017f4e6172656e647261204d6f6469000000000000000000000000000000000000008152506100b0640100000000026401000000009004565b6100ab6040805190810160405280600c81526020017f526168756c2047616e64686900000000000000000000000000000000000000008152506100b0640100000000026401000000009004565b6101d2565b6001600081548092919060010191905055506060604051908101604052806001548152602001828152602001600081525060026000600154815260200190815260200160002060008201518160000155602082015181600101908051906020019061011c92919061012d565b506040820151816002015590505050565b828054600181600116156101000203166002900490600052602060002090601f016020900481019282601f1061016e57805160ff191683800117855561019c565b8280016001018555821561019c579182015b8281111561019b578251825591602001919060010190610180565b5b5090506101a991906101ad565b5090565b6101cf91905b808211156101cb5760008160009055506001016101b3565b5090565b90565b61035d806101e16000396000f300608060405260043610610057576000357c0100000000000000000000000000000000000000000000000000000000900463ffffffff1680636c8381f81461005c578063a9a981a3146100ec578063b13c744b14610117575b600080fd5b34801561006857600080fd5b506100716101cb565b6040518080602001828103825283818151815260200191508051906020019080838360005b838110156100b1578082015181840152602081019050610096565b50505050905090810190601f1680156100de5780820380516001836020036101000a031916815260200191505b509250505060405180910390f35b3480156100f857600080fd5b50610101610269565b6040518082815260200191505060405180910390f35b34801561012357600080fd5b506101426004803603810190808035906020019092919050505061026f565b6040518084815260200180602001838152602001828103825284818151815260200191508051906020019080838360005b8381101561018e578082015181840152602081019050610173565b50505050905090810190601f1680156101bb5780820380516001836020036101000a031916815260200191505b5094505050505060405180910390f35b60008054600181600116156101000203166002900480601f0160208091040260200160405190810160405280929190818152602001828054600181600116156101000203166002900480156102615780601f1061023657610100808354040283529160200191610261565b820191906000526020600020905b81548152906001019060200180831161024457829003601f168201915b505050505081565b60015481565b6002602052806000526040600020600091509050806000015490806001018054600181600116156101000203166002900480601f0160208091040260200160405190810160405280929190818152602001828054600181600116156101000203166002900480156103215780601f106102f657610100808354040283529160200191610321565b820191906000526020600020905b81548152906001019060200180831161030457829003601f168201915b50505050509080600201549050835600a165627a7a72305820c6e6b56635b70dcf9b546077e2d7633ac8d4a74b1f489095170159a73e8d838e0029",
  "source": "pragma solidity ^0.4.24;\n\ncontract Election\n{\n\t\n\tstruct Candidate\t\t\t\t\t\t\t\t\t\t//Candidate structure\n\t{\n\t\tuint id;\n\t\tstring name;\n\t\tuint voteCount;\n\t}\n\n\tstring public candidate;\n\n\tuint public candidateCount;\t\t\t\t\t\t\t//getter function declared automatically cause of public\n\n\n\t\n\n\tmapping(uint => Candidate) public candidateList;\n\n\t\n\tfunction Election () public\t\t\t\t\t\t\t//Constructor\n\t{\n\t\taddCandidate(\"Narendra Modi\");\n\t\taddCandidate(\"Rahul Gandhi\");\n\t}\n\n\tfunction addCandidate (string _name) private\t\t\t//Function to add candidates\n\t{\n\t\tcandidateCount ++;\n\t\tcandidateList[candidateCount] = Candidate(candidateCount, _name, 0);\n\t}\n}",
  "sourcePath": "E:\\Elections\\contracts\\Election.sol",
  "compiler": {
    "name": "solc",
    "version": "0.4.24+commit.e67f0147.Emscripten.clang"
  },
  "schemaVersion": "2.0.1",
  "updatedAt": "2018-10-03T14:33:47.178Z"
}